{
"contractName": "Market",
"abi": [
{
"constant": false,
"inputs": [],
"name": "renounceOwnership",
"outputs": [],
"payable": false,
"stateMutability": "nonpayable",
"type": "function"
},
{
"constant": true,
"inputs": [],
"name": "owner",
"outputs": [
{
"name": "",
"type": "address"
}
],
"payable": false,
"stateMutability": "view",
"type": "function"
},
{
"constant": true,
"inputs": [],
"name": "isOwner",
"outputs": [
{
"name": "",
"type": "bool"
}
],
"payable": false,
"stateMutability": "view",
"type": "function"
},
{
"constant": false,
"inputs": [
{
"name": "newOwner",
"type": "address"
}
],
"name": "transferOwnership",
"outputs": [],
"payable": false,
"stateMutability": "nonpayable",
"type": "function"
},
{
"anonymous": false,
"inputs": [
{
"indexed": true,
"name": "previousOwner",
"type": "address"
},
{
"indexed": true,
"name": "newOwner",
"type": "address"
}
],
"name": "OwnershipTransferred",
"type": "event"
},
{
"constant": false,
"inputs": [
{
"name": "name",
"type": "string"
},
{
"name": "description",
"type": "string"
},
{
"name": "symbol",
"type": "string"
},
{
"name": "initialSupply",
"type": "uint256"
},
{
"name": "price",
"type": "uint256"
}
],
"name": "createProject",
"outputs": [],
"payable": false,
"stateMutability": "nonpayable",
"type": "function"
},
{
"constant": true,
"inputs": [
{
"name": "name",
"type": "string"
}
],
"name": "getProject",
"outputs": [
{
"name": "",
"type": "address"
}
],
"payable": false,
"stateMutability": "view",
"type": "function"
},
{
"constant": true,
"inputs": [
{
"name": "name",
"type": "string"
}
],
"name": "getProjectInfo",
"outputs": [
{
"name": "",
"type": "string"
}
],
"payable": false,
"stateMutability": "view",
"type": "function"
},
{
"constant": true,
"inputs": [
{
"name": "name",
"type": "string"
}
],
"name": "getPrice",
"outputs": [
{
"name": "",
"type": "uint256"
}
],
"payable": false,
"stateMutability": "view",
"type": "function"
},
{
"constant": true,
"inputs": [
{
"name": "name",
"type": "string"
}
],
"name": "getSharesCount",
"outputs": [
{
"name": "",
"type": "uint256"
}
],
"payable": false,
"stateMutability": "view",
"type": "function"
},
{
"constant": false,
"inputs": [
{
"name": "name",
"type": "string"
},
{
"name": "_numberOfTokens",
"type": "uint256"
}
],
"name": "buyProjectShares",
"outputs": [],
"payable": true,
"stateMutability": "payable",
"type": "function"
},
{
"constant": false,
"inputs": [
{
"name": "name",
"type": "string"
},
{
"name": "_numberOfTokens",
"type": "uint256"
}
],
"name": "sellProjectShares",
"outputs": [],
"payable": true,
"stateMutability": "payable",
"type": "function"
}
],
"bytecode": "0x6080604052336000806101000a81548173ffffffffffffffffffffffffffffffffffffffff021916908373ffffffffffffffffffffffffffffffffffffffff1602179055506000809054906101000a900473ffffffffffffffffffffffffffffffffffffffff1673ffffffffffffffffffffffffffffffffffffffff16600073ffffffffffffffffffffffffffffffffffffffff167f8be0079c531659141344cd1fd0a4f28419497f9722a3daafe3b4186f6b6457e060405160405180910390a3613e45806100cf6000396000f3fe608060405260043610620000aa5760003560e01c80638f32d59b116200006d5780638f32d59b146200052c57806397635d7b146200055e578063c74702191462000629578063f21ffeb0146200070c578063f2fde38b14620007d7578063f339118d146200082c57620000aa565b8063056c29ee14620000af5780634fa691e214620002c6578063524f388914620003d5578063715018a614620004b85780638da5cb5b14620004d2575b600080fd5b348015620000bc57600080fd5b50620002c4600480360360a0811015620000d557600080fd5b8101908080359060200190640100000000811115620000f357600080fd5b8201836020820111156200010657600080fd5b803590602001918460018302840111640100000000831117156200012957600080fd5b91908080601f016020809104026020016040519081016040528093929190818152602001838380828437600081840152601f19601f820116905080830192505050505050509192919290803590602001906401000000008111156200018d57600080fd5b820183602082011115620001a057600080fd5b80359060200191846001830284011164010000000083111715620001c357600080fd5b91908080601f016020809104026020016040519081016040528093929190818152602001838380828437600081840152601f19601f820116905080830192505050505050509192919290803590602001906401000000008111156200022757600080fd5b8201836020820111156200023a57600080fd5b803590602001918460018302840111640100000000831117156200025d57600080fd5b91908080601f016020809104026020016040519081016040528093929190818152602001838380828437600081840152601f19601f820116905080830192505050505050509192919290803590602001909291908035906020019092919050505062000977565b005b348015620002d357600080fd5b506200039360048036036020811015620002ec57600080fd5b81019080803590602001906401000000008111156200030a57600080fd5b8201836020820111156200031d57600080fd5b803590602001918460018302840111640100000000831117156200034057600080fd5b91908080601f016020809104026020016040519081016040528093929190818152602001838380828437600081840152601f19601f82011690508083019250505050505050919291929050505062000bbc565b604051808273ffffffffffffffffffffffffffffffffffffffff1673ffffffffffffffffffffffffffffffffffffffff16815260200191505060405180910390f35b348015620003e257600080fd5b50620004a260048036036020811015620003fb57600080fd5b81019080803590602001906401000000008111156200041957600080fd5b8201836020820111156200042c57600080fd5b803590602001918460018302840111640100000000831117156200044f57600080fd5b91908080601f016020809104026020016040519081016040528093929190818152602001838380828437600081840152601f19601f82011690508083019250505050505050919291929050505062000d63565b6040518082815260200191505060405180910390f35b348015620004c557600080fd5b50620004d062000f8d565b005b348015620004df57600080fd5b50620004ea620010c9565b604051808273ffffffffffffffffffffffffffffffffffffffff1673ffffffffffffffffffffffffffffffffffffffff16815260200191505060405180910390f35b3480156200053957600080fd5b5062000544620010f2565b604051808215151515815260200191505060405180910390f35b62000627600480360360408110156200057657600080fd5b81019080803590602001906401000000008111156200059457600080fd5b820183602082011115620005a757600080fd5b80359060200191846001830284011164010000000083111715620005ca57600080fd5b91908080601f016020809104026020016040519081016040528093929190818152602001838380828437600081840152601f19601f8201169050808301925050505050505091929192908035906020019092919050505062001149565b005b3480156200063657600080fd5b50620006f6600480360360208110156200064f57600080fd5b81019080803590602001906401000000008111156200066d57600080fd5b8201836020820111156200068057600080fd5b80359060200191846001830284011164010000000083111715620006a357600080fd5b91908080601f016020809104026020016040519081016040528093929190818152602001838380828437600081840152601f19601f82011690508083019250505050505050919291929050505062001635565b6040518082815260200191505060405180910390f35b620007d5600480360360408110156200072457600080fd5b81019080803590602001906401000000008111156200074257600080fd5b8201836020820111156200075557600080fd5b803590602001918460018302840111640100000000831117156200077857600080fd5b91908080601f016020809104026020016040519081016040528093929190818152602001838380828437600081840152601f19601f8201169050808301925050505050505091929192908035906020019092919050505062001896565b005b348015620007e457600080fd5b506200082a60048036036020811015620007fd57600080fd5b81019080803573ffffffffffffffffffffffffffffffffffffffff16906020019092919050505062001c45565b005b3480156200083957600080fd5b50620008f9600480360360208110156200085257600080fd5b81019080803590602001906401000000008111156200087057600080fd5b8201836020820111156200088357600080fd5b80359060200191846001830284011164010000000083111715620008a657600080fd5b91908080601f016020809104026020016040519081016040528093929190818152602001838380828437600081840152601f19601f82011690508083019250505050505050919291929050505062001cd0565b6040518080602001828103825283818151815260200191508051906020019080838360005b838110156200093b5780820151818401526020810190506200091e565b50505050905090810190601f168015620009695780820380516001836020036101000a031916815260200191505b509250505060405180910390f35b600085858585856040516200098c90620020cb565b80806020018060200180602001868152602001858152602001848103845289818151815260200191508051906020019080838360005b83811015620009df578082015181840152602081019050620009c2565b50505050905090810190601f16801562000a0d5780820380516001836020036101000a031916815260200191505b50848103835288818151815260200191508051906020019080838360005b8381101562000a4857808201518184015260208101905062000a2b565b50505050905090810190601f16801562000a765780820380516001836020036101000a031916815260200191505b50848103825287818151815260200191508051906020019080838360005b8381101562000ab157808201518184015260208101905062000a94565b50505050905090810190601f16801562000adf5780820380516001836020036101000a031916815260200191505b5098505050505050505050604051809103906000f08015801562000b07573d6000803e3d6000fd5b509050806001876040518082805190602001908083835b6020831062000b43578051825260208201915060208101905060208303925062000b1e565b6001836020036101000a038019825116818451168082178552505050505050905001915050908152602001604051809103902060006101000a81548173ffffffffffffffffffffffffffffffffffffffff021916908373ffffffffffffffffffffffffffffffffffffffff160217905550505050505050565b60008073ffffffffffffffffffffffffffffffffffffffff166001836040518082805190602001908083835b6020831062000c0d578051825260208201915060208101905060208303925062000be8565b6001836020036101000a038019825116818451168082178552505050505050905001915050908152602001604051809103902060009054906101000a900473ffffffffffffffffffffffffffffffffffffffff1673ffffffffffffffffffffffffffffffffffffffff16141562000cd0576040517f08c379a000000000000000000000000000000000000000000000000000000000815260040180806020018281038252602981526020018062003c7d6029913960400191505060405180910390fd5b6001826040518082805190602001908083835b6020831062000d08578051825260208201915060208101905060208303925062000ce3565b6001836020036101000a038019825116818451168082178552505050505050905001915050908152602001604051809103902060009054906101000a900473ffffffffffffffffffffffffffffffffffffffff169050919050565b60008073ffffffffffffffffffffffffffffffffffffffff166001836040518082805190602001908083835b6020831062000db4578051825260208201915060208101905060208303925062000d8f565b6001836020036101000a038019825116818451168082178552505050505050905001915050908152602001604051809103902060009054906101000a900473ffffffffffffffffffffffffffffffffffffffff1673ffffffffffffffffffffffffffffffffffffffff16141562000e77576040517f08c379a000000000000000000000000000000000000000000000000000000000815260040180806020018281038252602781526020018062003d926027913960400191505060405180910390fd5b6001826040518082805190602001908083835b6020831062000eaf578051825260208201915060208101905060208303925062000e8a565b6001836020036101000a038019825116818451168082178552505050505050905001915050908152602001604051809103902060009054906101000a900473ffffffffffffffffffffffffffffffffffffffff1673ffffffffffffffffffffffffffffffffffffffff16637ff9b5966040518163ffffffff1660e01b815260040160206040518083038186803b15801562000f4957600080fd5b505afa15801562000f5e573d6000803e3d6000fd5b505050506040513d602081101562000f7557600080fd5b81019080805190602001909291905050509050919050565b62000f97620010f2565b6200100a576040517f08c379a00000000000000000000000000000000000000000000000000000000081526004018080602001828103825260208152602001807f4f776e61626c653a2063616c6c6572206973206e6f7420746865206f776e657281525060200191505060405180910390fd5b600073ffffffffffffffffffffffffffffffffffffffff166000809054906101000a900473ffffffffffffffffffffffffffffffffffffffff1673ffffffffffffffffffffffffffffffffffffffff167f8be0079c531659141344cd1fd0a4f28419497f9722a3daafe3b4186f6b6457e060405160405180910390a360008060006101000a81548173ffffffffffffffffffffffffffffffffffffffff021916908373ffffffffffffffffffffffffffffffffffffffff160217905550565b60008060009054906101000a900473ffffffffffffffffffffffffffffffffffffffff16905090565b60008060009054906101000a900473ffffffffffffffffffffffffffffffffffffffff1673ffffffffffffffffffffffffffffffffffffffff163373ffffffffffffffffffffffffffffffffffffffff1614905090565b600073ffffffffffffffffffffffffffffffffffffffff166001836040518082805190602001908083835b6020831062001199578051825260208201915060208101905060208303925062001174565b6001836020036101000a038019825116818451168082178552505050505050905001915050908152602001604051809103902060009054906101000a900473ffffffffffffffffffffffffffffffffffffffff1673ffffffffffffffffffffffffffffffffffffffff1614156200125c576040517f08c379a000000000000000000000000000000000000000000000000000000000815260040180806020018281038252603081526020018062003cfb6030913960400191505060405180910390fd5b806001836040518082805190602001908083835b6020831062001295578051825260208201915060208101905060208303925062001270565b6001836020036101000a038019825116818451168082178552505050505050905001915050908152602001604051809103902060009054906101000a900473ffffffffffffffffffffffffffffffffffffffff1673ffffffffffffffffffffffffffffffffffffffff166370a08231336040518263ffffffff1660e01b8152600401808273ffffffffffffffffffffffffffffffffffffffff1673ffffffffffffffffffffffffffffffffffffffff16815260200191505060206040518083038186803b1580156200136657600080fd5b505afa1580156200137b573d6000803e3d6000fd5b505050506040513d60208110156200139257600080fd5b81019080805190602001909291905050501015620013fc576040517f08c379a000000000000000000000000000000000000000000000000000000000815260040180806020018281038252603881526020018062003db96038913960400191505060405180910390fd5b6001826040518082805190602001908083835b602083106200143457805182526020820191506020810190506020830392506200140f565b6001836020036101000a038019825116818451168082178552505050505050905001915050908152602001604051809103902060009054906101000a900473ffffffffffffffffffffffffffffffffffffffff1673ffffffffffffffffffffffffffffffffffffffff166323b872dd3330846040518463ffffffff1660e01b8152600401808473ffffffffffffffffffffffffffffffffffffffff1673ffffffffffffffffffffffffffffffffffffffff1681526020018373ffffffffffffffffffffffffffffffffffffffff1673ffffffffffffffffffffffffffffffffffffffff1681526020018281526020019350505050602060405180830381600087803b1580156200154357600080fd5b505af115801562001558573d6000803e3d6000fd5b505050506040513d60208110156200156f57600080fd5b8101908080519060200190929190505050620015d7576040517f08c379a000000000000000000000000000000000000000000000000000000000815260040180806020018281038252602981526020018062003df16029913960400191505060405180910390fd5b600081620015e58462000d63565b0290503373ffffffffffffffffffffffffffffffffffffffff166108fc829081150290604051600060405180830381858888f193505050501580156200162f573d6000803e3d6000fd5b50505050565b60008073ffffffffffffffffffffffffffffffffffffffff166001836040518082805190602001908083835b6020831062001686578051825260208201915060208101905060208303925062001661565b6001836020036101000a038019825116818451168082178552505050505050905001915050908152602001604051809103902060009054906101000a900473ffffffffffffffffffffffffffffffffffffffff1673ffffffffffffffffffffffffffffffffffffffff16141562001749576040517f08c379a000000000000000000000000000000000000000000000000000000000815260040180806020018281038252602d81526020018062003c24602d913960400191505060405180910390fd5b6001826040518082805190602001908083835b602083106200178157805182526020820191506020810190506020830392506200175c565b6001836020036101000a038019825116818451168082178552505050505050905001915050908152602001604051809103902060009054906101000a900473ffffffffffffffffffffffffffffffffffffffff1673ffffffffffffffffffffffffffffffffffffffff166370a08231306040518263ffffffff1660e01b8152600401808273ffffffffffffffffffffffffffffffffffffffff1673ffffffffffffffffffffffffffffffffffffffff16815260200191505060206040518083038186803b1580156200185257600080fd5b505afa15801562001867573d6000803e3d6000fd5b505050506040513d60208110156200187e57600080fd5b81019080805190602001909291905050509050919050565b600073ffffffffffffffffffffffffffffffffffffffff166001836040518082805190602001908083835b60208310620018e65780518252602082019150602081019050602083039250620018c1565b6001836020036101000a038019825116818451168082178552505050505050905001915050908152602001604051809103902060009054906101000a900473ffffffffffffffffffffffffffffffffffffffff1673ffffffffffffffffffffffffffffffffffffffff161415620019a9576040517f08c379a000000000000000000000000000000000000000000000000000000000815260040180806020018281038252602f81526020018062003ca6602f913960400191505060405180910390fd5b620019bf81620019b98462000d63565b62001f54565b34101562001a19576040517f08c379a000000000000000000000000000000000000000000000000000000000815260040180806020018281038252602c81526020018062003c51602c913960400191505060405180910390fd5b8062001a258362001635565b101562001a7e576040517f08c379a000000000000000000000000000000000000000000000000000000000815260040180806020018281038252603a81526020018062003d2b603a913960400191505060405180910390fd5b6001826040518082805190602001908083835b6020831062001ab6578051825260208201915060208101905060208303925062001a91565b6001836020036101000a038019825116818451168082178552505050505050905001915050908152602001604051809103902060009054906101000a900473ffffffffffffffffffffffffffffffffffffffff1673ffffffffffffffffffffffffffffffffffffffff1663a9059cbb33836040518363ffffffff1660e01b8152600401808373ffffffffffffffffffffffffffffffffffffffff1673ffffffffffffffffffffffffffffffffffffffff16815260200182815260200192505050602060405180830381600087803b15801562001b9157600080fd5b505af115801562001ba6573d6000803e3d6000fd5b505050506040513d602081101562001bbd57600080fd5b810190808051906020019092919050505062001c41576040517f08c379a00000000000000000000000000000000000000000000000000000000081526004018080602001828103825260158152602001807f4d61726b65743a20426164207472616e7366657221000000000000000000000081525060200191505060405180910390fd5b5050565b62001c4f620010f2565b62001cc2576040517f08c379a00000000000000000000000000000000000000000000000000000000081526004018080602001828103825260208152602001807f4f776e61626c653a2063616c6c6572206973206e6f7420746865206f776e657281525060200191505060405180910390fd5b62001ccd8162001f85565b50565b6060600073ffffffffffffffffffffffffffffffffffffffff166001836040518082805190602001908083835b6020831062001d22578051825260208201915060208101905060208303925062001cfd565b6001836020036101000a038019825116818451168082178552505050505050905001915050908152602001604051809103902060009054906101000a900473ffffffffffffffffffffffffffffffffffffffff1673ffffffffffffffffffffffffffffffffffffffff16141562001de5576040517f08c379a000000000000000000000000000000000000000000000000000000000815260040180806020018281038252602d81526020018062003d65602d913960400191505060405180910390fd5b6001826040518082805190602001908083835b6020831062001e1d578051825260208201915060208101905060208303925062001df8565b6001836020036101000a038019825116818451168082178552505050505050905001915050908152602001604051809103902060009054906101000a900473ffffffffffffffffffffffffffffffffffffffff1673ffffffffffffffffffffffffffffffffffffffff16637284e4166040518163ffffffff1660e01b815260040160006040518083038186803b15801562001eb757600080fd5b505afa15801562001ecc573d6000803e3d6000fd5b505050506040513d6000823e3d601f19601f82011682018060405250602081101562001ef757600080fd5b81019080805164010000000081111562001f1057600080fd5b8281019050602081018481111562001f2757600080fd5b815185600182028301116401000000008211171562001f4557600080fd5b50509291905050509050919050565b60008082148062001f70575082828385028162001f6d57fe5b04145b62001f7a57600080fd5b818302905092915050565b600073ffffffffffffffffffffffffffffffffffffffff168173ffffffffffffffffffffffffffffffffffffffff1614156200200d576040517f08c379a000000000000000000000000000000000000000000000000000000000815260040180806020018281038252602681526020018062003cd56026913960400191505060405180910390fd5b8073ffffffffffffffffffffffffffffffffffffffff166000809054906101000a900473ffffffffffffffffffffffffffffffffffffffff1673ffffffffffffffffffffffffffffffffffffffff167f8be0079c531659141344cd1fd0a4f28419497f9722a3daafe3b4186f6b6457e060405160405180910390a3806000806101000a81548173ffffffffffffffffffffffffffffffffffffffff021916908373ffffffffffffffffffffffffffffffffffffffff16021790555050565b611b4a80620020da8339019056fe608060405260026007553480156200001657600080fd5b5060405162001b4a38038062001b4a833981018060405260a08110156200003c57600080fd5b8101908080516401000000008111156200005557600080fd5b828101905060208101848111156200006c57600080fd5b81518560018202830111640100000000821117156200008a57600080fd5b50509291906020018051640100000000811115620000a757600080fd5b82810190506020810184811115620000be57600080fd5b8151856001820283011164010000000082111715620000dc57600080fd5b50509291906020018051640100000000811115620000f957600080fd5b828101905060208101848111156200011057600080fd5b81518560018202830111640100000000821117156200012e57600080fd5b50509291906020018051906020019092919080519060200190929190505050336000806101000a81548173ffffffffffffffffffffffffffffffffffffffff021916908373ffffffffffffffffffffffffffffffffffffffff1602179055506000809054906101000a900473ffffffffffffffffffffffffffffffffffffffff1673ffffffffffffffffffffffffffffffffffffffff16600073ffffffffffffffffffffffffffffffffffffffff167f8be0079c531659141344cd1fd0a4f28419497f9722a3daafe3b4186f6b6457e060405160405180910390a3846004908051906020019062000221929190620004cd565b5083600590805190602001906200023a929190620004cd565b50826006908051906020019062000253929190620004cd565b506200026633836200027860201b60201c565b8060088190555050505050506200057c565b600073ffffffffffffffffffffffffffffffffffffffff168273ffffffffffffffffffffffffffffffffffffffff1614156200031c576040517f08c379a000000000000000000000000000000000000000000000000000000000815260040180806020018281038252601f8152602001807f45524332303a206d696e7420746f20746865207a65726f20616464726573730081525060200191505060405180910390fd5b62000338816003546200044460201b620013121790919060201c565b6003819055506200039781600160008573ffffffffffffffffffffffffffffffffffffffff1673ffffffffffffffffffffffffffffffffffffffff168152602001908152602001600020546200044460201b620013121790919060201c565b600160008473ffffffffffffffffffffffffffffffffffffffff1673ffffffffffffffffffffffffffffffffffffffff168152602001908152602001600020819055508173ffffffffffffffffffffffffffffffffffffffff16600073ffffffffffffffffffffffffffffffffffffffff167fddf252ad1be2c89b69c2b068fc378daa952ba7f163c4a11628f55a4df523b3ef836040518082815260200191505060405180910390a35050565b600080828401905083811015620004c3576040517f08c379a000000000000000000000000000000000000000000000000000000000815260040180806020018281038252601b8152602001807f536166654d6174683a206164646974696f6e206f766572666c6f77000000000081525060200191505060405180910390fd5b8091505092915050565b828054600181600116156101000203166002900490600052602060002090601f016020900481019282601f106200051057805160ff191683800117855562000541565b8280016001018555821562000541579182015b828111156200054057825182559160200191906001019062000523565b5b50905062000550919062000554565b5090565b6200057991905b80821115620005755760008160009055506001016200055b565b5090565b90565b6115be806200058c6000396000f3fe608060405234801561001057600080fd5b50600436106101165760003560e01c80637284e416116100a257806395d89b411161007157806395d89b41146104b9578063a457c2d71461053c578063a9059cbb146105a2578063dd62ed3e14610608578063f2fde38b1461068057610116565b80637284e416146103ac5780637ff9b5961461042f5780638da5cb5b1461044d5780638f32d59b1461049757610116565b8063313ce567116100e9578063313ce567146102a857806339509351146102c6578063518ab2a81461032c57806370a082311461034a578063715018a6146103a257610116565b806306fdde031461011b578063095ea7b31461019e57806318160ddd1461020457806323b872dd14610222575b600080fd5b6101236106c4565b6040518080602001828103825283818151815260200191508051906020019080838360005b83811015610163578082015181840152602081019050610148565b50505050905090810190601f1680156101905780820380516001836020036101000a031916815260200191505b509250505060405180910390f35b6101ea600480360360408110156101b457600080fd5b81019080803573ffffffffffffffffffffffffffffffffffffffff16906020019092919080359060200190929190505050610762565b604051808215151515815260200191505060405180910390f35b61020c610779565b6040518082815260200191505060405180910390f35b61028e6004803603606081101561023857600080fd5b81019080803573ffffffffffffffffffffffffffffffffffffffff169060200190929190803573ffffffffffffffffffffffffffffffffffffffff16906020019092919080359060200190929190505050610783565b604051808215151515815260200191505060405180910390f35b6102b0610834565b6040518082815260200191505060405180910390f35b610312600480360360408110156102dc57600080fd5b81019080803573ffffffffffffffffffffffffffffffffffffffff1690602001909291908035906020019092919050505061083a565b604051808215151515815260200191505060405180910390f35b6103346108df565b6040518082815260200191505060405180910390f35b61038c6004803603602081101561036057600080fd5b81019080803573ffffffffffffffffffffffffffffffffffffffff1690602001909291905050506108e5565b6040518082815260200191505060405180910390f35b6103aa61092e565b005b6103b4610a67565b6040518080602001828103825283818151815260200191508051906020019080838360005b838110156103f45780820151818401526020810190506103d9565b50505050905090810190601f1680156104215780820380516001836020036101000a031916815260200191505b509250505060405180910390f35b610437610b05565b6040518082815260200191505060405180910390f35b610455610b0b565b604051808273ffffffffffffffffffffffffffffffffffffffff1673ffffffffffffffffffffffffffffffffffffffff16815260200191505060405180910390f35b61049f610b34565b604051808215151515815260200191505060405180910390f35b6104c1610b8b565b6040518080602001828103825283818151815260200191508051906020019080838360005b838110156105015780820151818401526020810190506104e6565b50505050905090810190601f16801561052e5780820380516001836020036101000a031916815260200191505b509250505060405180910390f35b6105886004803603604081101561055257600080fd5b81019080803573ffffffffffffffffffffffffffffffffffffffff16906020019092919080359060200190929190505050610c29565b604051808215151515815260200191505060405180910390f35b6105ee600480360360408110156105b857600080fd5b81019080803573ffffffffffffffffffffffffffffffffffffffff16906020019092919080359060200190929190505050610cce565b604051808215151515815260200191505060405180910390f35b61066a6004803603604081101561061e57600080fd5b81019080803573ffffffffffffffffffffffffffffffffffffffff169060200190929190803573ffffffffffffffffffffffffffffffffffffffff169060200190929190505050610ce5565b6040518082815260200191505060405180910390f35b6106c26004803603602081101561069657600080fd5b81019080803573ffffffffffffffffffffffffffffffffffffffff169060200190929190505050610d6c565b005b60048054600181600116156101000203166002900480601f01602080910402602001604051908101604052809291908181526020018280546001816001161561010002031660029004801561075a5780601f1061072f5761010080835404028352916020019161075a565b820191906000526020600020905b81548152906001019060200180831161073d57829003601f168201915b505050505081565b600061076f338484610df2565b6001905092915050565b6000600354905090565b6000610790848484610fe9565b610829843361082485600260008a73ffffffffffffffffffffffffffffffffffffffff1673ffffffffffffffffffffffffffffffffffffffff16815260200190815260200160002060003373ffffffffffffffffffffffffffffffffffffffff1673ffffffffffffffffffffffffffffffffffffffff1681526020019081526020016000205461128990919063ffffffff16565b610df2565b600190509392505050565b60075481565b60006108d533846108d085600260003373ffffffffffffffffffffffffffffffffffffffff1673ffffffffffffffffffffffffffffffffffffffff16815260200190815260200160002060008973ffffffffffffffffffffffffffffffffffffffff1673ffffffffffffffffffffffffffffffffffffffff1681526020019081526020016000205461131290919063ffffffff16565b610df2565b6001905092915050565b60095481565b6000600160008373ffffffffffffffffffffffffffffffffffffffff1673ffffffffffffffffffffffffffffffffffffffff168152602001908152602001600020549050919050565b610936610b34565b6109a8576040517f08c379a00000000000000000000000000000000000000000000000000000000081526004018080602001828103825260208152602001807f4f776e61626c653a2063616c6c6572206973206e6f7420746865206f776e657281525060200191505060405180910390fd5b600073ffffffffffffffffffffffffffffffffffffffff166000809054906101000a900473ffffffffffffffffffffffffffffffffffffffff1673ffffffffffffffffffffffffffffffffffffffff167f8be0079c531659141344cd1fd0a4f28419497f9722a3daafe3b4186f6b6457e060405160405180910390a360008060006101000a81548173ffffffffffffffffffffffffffffffffffffffff021916908373ffffffffffffffffffffffffffffffffffffffff160217905550565b60058054600181600116156101000203166002900480601f016020809104026020016040519081016040528092919081815260200182805460018160011615610100020316600290048015610afd5780601f10610ad257610100808354040283529160200191610afd565b820191906000526020600020905b815481529060010190602001808311610ae057829003601f168201915b505050505081565b60085481565b60008060009054906101000a900473ffffffffffffffffffffffffffffffffffffffff16905090565b60008060009054906101000a900473ffffffffffffffffffffffffffffffffffffffff1673ffffffffffffffffffffffffffffffffffffffff163373ffffffffffffffffffffffffffffffffffffffff1614905090565b60068054600181600116156101000203166002900480601f016020809104026020016040519081016040528092919081815260200182805460018160011615610100020316600290048015610c215780601f10610bf657610100808354040283529160200191610c21565b820191906000526020600020905b815481529060010190602001808311610c0457829003601f168201915b505050505081565b6000610cc43384610cbf85600260003373ffffffffffffffffffffffffffffffffffffffff1673ffffffffffffffffffffffffffffffffffffffff16815260200190815260200160002060008973ffffffffffffffffffffffffffffffffffffffff1673ffffffffffffffffffffffffffffffffffffffff1681526020019081526020016000205461128990919063ffffffff16565b610df2565b6001905092915050565b6000610cdb338484610fe9565b6001905092915050565b6000600260008473ffffffffffffffffffffffffffffffffffffffff1673ffffffffffffffffffffffffffffffffffffffff16815260200190815260200160002060008373ffffffffffffffffffffffffffffffffffffffff1673ffffffffffffffffffffffffffffffffffffffff16815260200190815260200160002054905092915050565b610d74610b34565b610de6576040517f08c379a00000000000000000000000000000000000000000000000000000000081526004018080602001828103825260208152602001807f4f776e61626c653a2063616c6c6572206973206e6f7420746865206f776e657281525060200191505060405180910390fd5b610def8161139a565b50565b600073ffffffffffffffffffffffffffffffffffffffff168373ffffffffffffffffffffffffffffffffffffffff161415610e78576040517f08c379a000000000000000000000000000000000000000000000000000000000815260040180806020018281038252602481526020018061156f6024913960400191505060405180910390fd5b600073ffffffffffffffffffffffffffffffffffffffff168273ffffffffffffffffffffffffffffffffffffffff161415610efe576040517f08c379a00000000000000000000000000000000000000000000000000000000081526004018080602001828103825260228152602001806115286022913960400191505060405180910390fd5b80600260008573ffffffffffffffffffffffffffffffffffffffff1673ffffffffffffffffffffffffffffffffffffffff16815260200190815260200160002060008473ffffffffffffffffffffffffffffffffffffffff1673ffffffffffffffffffffffffffffffffffffffff168152602001908152602001600020819055508173ffffffffffffffffffffffffffffffffffffffff168373ffffffffffffffffffffffffffffffffffffffff167f8c5be1e5ebec7d5bd14f71427d1e84f3dd0314c0f7b2291e5b200ac8c7c3b925836040518082815260200191505060405180910390a3505050565b600073ffffffffffffffffffffffffffffffffffffffff168373ffffffffffffffffffffffffffffffffffffffff16141561106f576040517f08c379a000000000000000000000000000000000000000000000000000000000815260040180806020018281038252602581526020018061154a6025913960400191505060405180910390fd5b600073ffffffffffffffffffffffffffffffffffffffff168273ffffffffffffffffffffffffffffffffffffffff1614156110f5576040517f08c379a00000000000000000000000000000000000000000000000000000000081526004018080602001828103825260238152602001806114df6023913960400191505060405180910390fd5b61114781600160008673ffffffffffffffffffffffffffffffffffffffff1673ffffffffffffffffffffffffffffffffffffffff1681526020019081526020016000205461128990919063ffffffff16565b600160008573ffffffffffffffffffffffffffffffffffffffff1673ffffffffffffffffffffffffffffffffffffffff168152602001908152602001600020819055506111dc81600160008573ffffffffffffffffffffffffffffffffffffffff1673ffffffffffffffffffffffffffffffffffffffff1681526020019081526020016000205461131290919063ffffffff16565b600160008473ffffffffffffffffffffffffffffffffffffffff1673ffffffffffffffffffffffffffffffffffffffff168152602001908152602001600020819055508173ffffffffffffffffffffffffffffffffffffffff168373ffffffffffffffffffffffffffffffffffffffff167fddf252ad1be2c89b69c2b068fc378daa952ba7f163c4a11628f55a4df523b3ef836040518082815260200191505060405180910390a3505050565b600082821115611301576040517f08c379a000000000000000000000000000000000000000000000000000000000815260040180806020018281038252601e8152602001807f536166654d6174683a207375627472616374696f6e206f766572666c6f77000081525060200191505060405180910390fd5b600082840390508091505092915050565b600080828401905083811015611390576040517f08c379a000000000000000000000000000000000000000000000000000000000815260040180806020018281038252601b8152602001807f536166654d6174683a206164646974696f6e206f766572666c6f77000000000081525060200191505060405180910390fd5b8091505092915050565b600073ffffffffffffffffffffffffffffffffffffffff168173ffffffffffffffffffffffffffffffffffffffff161415611420576040517f08c379a00000000000000000000000000000000000000000000000000000000081526004018080602001828103825260268152602001806115026026913960400191505060405180910390fd5b8073ffffffffffffffffffffffffffffffffffffffff166000809054906101000a900473ffffffffffffffffffffffffffffffffffffffff1673ffffffffffffffffffffffffffffffffffffffff167f8be0079c531659141344cd1fd0a4f28419497f9722a3daafe3b4186f6b6457e060405160405180910390a3806000806101000a81548173ffffffffffffffffffffffffffffffffffffffff021916908373ffffffffffffffffffffffffffffffffffffffff1602179055505056fe45524332303a207472616e7366657220746f20746865207a65726f20616464726573734f776e61626c653a206e6577206f776e657220697320746865207a65726f206164647265737345524332303a20617070726f766520746f20746865207a65726f206164647265737345524332303a207472616e736665722066726f6d20746865207a65726f206164647265737345524332303a20617070726f76652066726f6d20746865207a65726f2061646472657373a165627a7a7230582012e7386a0d58aeddc638ce00e7adb86866910d5de2f26215074085bae823d2b100294d61726b65743a20676574536861726573436f756e74202d204e616d6520646f6573206e6f74206578697374214d61726b65743a2062757950726f6a656374536861726573202d20496e636f727265637420616d6f756e74214d61726b65743a2067657450726f6a656374202d204e616d6520646f6573206e6f74206578697374214d61726b65743a2062757950726f6a656374536861726573202d204e616d6520646f6573206e6f74206578697374214f776e61626c653a206e6577206f776e657220697320746865207a65726f20616464726573734d61726b65743a2073656c6c50726f6a656374536861726573202d204e616d6520646f6573206e6f74206578697374214d61726b65743a2062757950726f6a656374536861726573202d20546f206d616e792073686172657320796f752077616e7420746f20627579214d61726b65743a2067657450726f6a656374496e666f202d204e616d6520646f6573206e6f74206578697374214d61726b65743a206765745072696365202d204e616d6520646f6573206e6f74206578697374214d61726b65743a2073656c6c50726f6a656374536861726573202d20596f7520646f6e74206861766520656e6f75676820736861726573214d61726b65743a2073656c6c50726f6a656374536861726573202d20426164207472616e7366657221a165627a7a7230582006aade65b2fbdbc677627eacc84e8a6706d2cab26f8e46780b306456fa386a660029",
"source": "pragma solidity ^0.5.0;\n\nimport \"@openzeppelin/contracts/ownership/Ownable.sol\";\nimport \"./Project.sol\";\n\ncontract Market is Ownable {\n\n    mapping(string => Project) data;\n\n\n    function createProject(string memory name, string memory description, string memory symbol, uint initialSupply, uint256 price) public {\n        Project project = new Project(name, description, symbol, initialSupply, price);\n        data[name] = project;\n    }\n\n    function getProject(string memory name) public view returns (address) {\n        require(address(data[name]) != address(0), \"Market: getProject - Name does not exist!\");\n        return address(data[name]);\n    }\n\n    function getProjectInfo(string memory name) public view returns (string memory) {\n        require(address(data[name]) != address(0), \"Market: getProjectInfo - Name does not exist!\");\n        return data[name].description();\n    }\n\n    function getPrice(string memory name) public view returns (uint256) {\n        require(address(data[name]) != address(0), \"Market: getPrice - Name does not exist!\");\n        return data[name].tokenPrice();\n    }\n\n    function getSharesCount(string memory name) public view returns (uint256) {\n        require(address(data[name]) != address(0), \"Market: getSharesCount - Name does not exist!\");\n        return data[name].balanceOf(address(this));\n    }\n\n    function multiply(uint amount, uint price) internal pure returns (uint) {\n        require(price == 0 || (amount * price) / price == amount);\n        return amount * price;\n    }\n\n    function buyProjectShares(string memory name, uint256 _numberOfTokens) public payable {\n        require(address(data[name]) != address(0), \"Market: buyProjectShares - Name does not exist!\");\n        require(msg.value >= multiply(_numberOfTokens, getPrice(name)), \"Market: buyProjectShares - Incorrect amount!\");\n        require(getSharesCount(name) >= _numberOfTokens, \"Market: buyProjectShares - To many shares you want to buy!\");\n        require(data[name].transfer(msg.sender, _numberOfTokens), \"Market: Bad transfer!\");\n    }\n\n    function sellProjectShares(string memory name, uint256 _numberOfTokens) public payable {\n        require(address(data[name]) != address(0), \"Market: sellProjectShares - Name does not exist!\");\n        require(data[name].balanceOf(msg.sender) >= _numberOfTokens, \"Market: sellProjectShares - You dont have enough shares!\");\n        require(data[name].transferFrom(msg.sender, address(this), _numberOfTokens), \"Market: sellProjectShares - Bad transfer!\");\n        uint256 value = getPrice(name) * _numberOfTokens;\n        msg.sender.transfer(value);\n    }\n\n}",
"sourcePath": "/home/richardowsky/Videos/Test/contracts/Market.sol",
"compiler": {
"name": "solc",
"version": "0.5.8+commit.23d335f2.Emscripten.clang"
},
"schemaVersion": "3.0.15",
"updatedAt": "2019-10-21T14:37:06.616Z",
"devdoc": {
"methods": {
"isOwner()": {
"details": "Returns true if the caller is the current owner."
},
"owner()": {
"details": "Returns the address of the current owner."
},
"renounceOwnership()": {
"details": "Leaves the contract without owner. It will not be possible to call `onlyOwner` functions anymore. Can only be called by the current owner.     * > Note: Renouncing ownership will leave the contract without an owner, thereby removing any functionality that is only available to the owner."
},
"transferOwnership(address)": {
"details": "Transfers ownership of the contract to a new account (`newOwner`). Can only be called by the current owner."
}
}
},
"userdoc": {
"methods": {}
}
}